{
    "_format": "hh-sol-artifact-1",
    "contractName": "OmniCounter",
    "sourceName": "contracts/OmniCounter.sol",
    "abi": [
        {
            "inputs": [
                {
                    "internalType": "address",
                    "name": "_lzEndpoint",
                    "type": "address"
                }
            ],
            "stateMutability": "nonpayable",
            "type": "constructor"
        },
        {
            "anonymous": false,
            "inputs": [
                {
                    "indexed": false,
                    "internalType": "uint16",
                    "name": "_srcChainId",
                    "type": "uint16"
                },
                {
                    "indexed": false,
                    "internalType": "bytes",
                    "name": "_srcAddress",
                    "type": "bytes"
                },
                {
                    "indexed": false,
                    "internalType": "uint64",
                    "name": "_nonce",
                    "type": "uint64"
                },
                {
                    "indexed": false,
                    "internalType": "bytes",
                    "name": "_payload",
                    "type": "bytes"
                },
                {
                    "indexed": false,
                    "internalType": "bytes",
                    "name": "_reason",
                    "type": "bytes"
                }
            ],
            "name": "MessageFailed",
            "type": "event"
        },
        {
            "anonymous": false,
            "inputs": [
                {
                    "indexed": true,
                    "internalType": "address",
                    "name": "previousOwner",
                    "type": "address"
                },
                {
                    "indexed": true,
                    "internalType": "address",
                    "name": "newOwner",
                    "type": "address"
                }
            ],
            "name": "OwnershipTransferred",
            "type": "event"
        },
        {
            "anonymous": false,
            "inputs": [
                {
                    "indexed": false,
                    "internalType": "uint16",
                    "name": "_srcChainId",
                    "type": "uint16"
                },
                {
                    "indexed": false,
                    "internalType": "bytes",
                    "name": "_srcAddress",
                    "type": "bytes"
                },
                {
                    "indexed": false,
                    "internalType": "uint64",
                    "name": "_nonce",
                    "type": "uint64"
                },
                {
                    "indexed": false,
                    "internalType": "bytes32",
                    "name": "_payloadHash",
                    "type": "bytes32"
                }
            ],
            "name": "RetryMessageSuccess",
            "type": "event"
        },
        {
            "anonymous": false,
            "inputs": [
                {
                    "indexed": false,
                    "internalType": "uint16",
                    "name": "_dstChainId",
                    "type": "uint16"
                },
                {
                    "indexed": false,
                    "internalType": "uint16",
                    "name": "_type",
                    "type": "uint16"
                },
                {
                    "indexed": false,
                    "internalType": "uint256",
                    "name": "_minDstGas",
                    "type": "uint256"
                }
            ],
            "name": "SetMinDstGas",
            "type": "event"
        },
        {
            "anonymous": false,
            "inputs": [
                {
                    "indexed": false,
                    "internalType": "address",
                    "name": "precrime",
                    "type": "address"
                }
            ],
            "name": "SetPrecrime",
            "type": "event"
        },
        {
            "anonymous": false,
            "inputs": [
                {
                    "indexed": false,
                    "internalType": "uint16",
                    "name": "_remoteChainId",
                    "type": "uint16"
                },
                {
                    "indexed": false,
                    "internalType": "bytes",
                    "name": "_path",
                    "type": "bytes"
                }
            ],
            "name": "SetTrustedRemote",
            "type": "event"
        },
        {
            "anonymous": false,
            "inputs": [
                {
                    "indexed": false,
                    "internalType": "uint16",
                    "name": "_remoteChainId",
                    "type": "uint16"
                },
                {
                    "indexed": false,
                    "internalType": "bytes",
                    "name": "_remoteAddress",
                    "type": "bytes"
                }
            ],
            "name": "SetTrustedRemoteAddress",
            "type": "event"
        },
        {
            "inputs": [],
            "name": "DEFAULT_PAYLOAD_SIZE_LIMIT",
            "outputs": [
                {
                    "internalType": "uint256",
                    "name": "",
                    "type": "uint256"
                }
            ],
            "stateMutability": "view",
            "type": "function"
        },
        {
            "inputs": [],
            "name": "PAYLOAD",
            "outputs": [
                {
                    "internalType": "bytes",
                    "name": "",
                    "type": "bytes"
                }
            ],
            "stateMutability": "view",
            "type": "function"
        },
        {
            "inputs": [],
            "name": "counter",
            "outputs": [
                {
                    "internalType": "uint256",
                    "name": "",
                    "type": "uint256"
                }
            ],
            "stateMutability": "view",
            "type": "function"
        },
        {
            "inputs": [
                {
                    "internalType": "uint16",
                    "name": "_dstChainId",
                    "type": "uint16"
                },
                {
                    "internalType": "bool",
                    "name": "_useZro",
                    "type": "bool"
                },
                {
                    "internalType": "bytes",
                    "name": "_adapterParams",
                    "type": "bytes"
                }
            ],
            "name": "estimateFee",
            "outputs": [
                {
                    "internalType": "uint256",
                    "name": "nativeFee",
                    "type": "uint256"
                },
                {
                    "internalType": "uint256",
                    "name": "zroFee",
                    "type": "uint256"
                }
            ],
            "stateMutability": "view",
            "type": "function"
        },
        {
            "inputs": [
                {
                    "internalType": "uint16",
                    "name": "",
                    "type": "uint16"
                },
                {
                    "internalType": "bytes",
                    "name": "",
                    "type": "bytes"
                },
                {
                    "internalType": "uint64",
                    "name": "",
                    "type": "uint64"
                }
            ],
            "name": "failedMessages",
            "outputs": [
                {
                    "internalType": "bytes32",
                    "name": "",
                    "type": "bytes32"
                }
            ],
            "stateMutability": "view",
            "type": "function"
        },
        {
            "inputs": [
                {
                    "internalType": "uint16",
                    "name": "_srcChainId",
                    "type": "uint16"
                },
                {
                    "internalType": "bytes",
                    "name": "_srcAddress",
                    "type": "bytes"
                }
            ],
            "name": "forceResumeReceive",
            "outputs": [],
            "stateMutability": "nonpayable",
            "type": "function"
        },
        {
            "inputs": [
                {
                    "internalType": "uint16",
                    "name": "_version",
                    "type": "uint16"
                },
                {
                    "internalType": "uint16",
                    "name": "_chainId",
                    "type": "uint16"
                },
                {
                    "internalType": "address",
                    "name": "",
                    "type": "address"
                },
                {
                    "internalType": "uint256",
                    "name": "_configType",
                    "type": "uint256"
                }
            ],
            "name": "getConfig",
            "outputs": [
                {
                    "internalType": "bytes",
                    "name": "",
                    "type": "bytes"
                }
            ],
            "stateMutability": "view",
            "type": "function"
        },
        {
            "inputs": [
                {
                    "internalType": "uint16",
                    "name": "remoteChainId",
                    "type": "uint16"
                }
            ],
            "name": "getOracle",
            "outputs": [
                {
                    "internalType": "address",
                    "name": "_oracle",
                    "type": "address"
                }
            ],
            "stateMutability": "view",
            "type": "function"
        },
        {
            "inputs": [
                {
                    "internalType": "uint16",
                    "name": "_remoteChainId",
                    "type": "uint16"
                }
            ],
            "name": "getTrustedRemoteAddress",
            "outputs": [
                {
                    "internalType": "bytes",
                    "name": "",
                    "type": "bytes"
                }
            ],
            "stateMutability": "view",
            "type": "function"
        },
        {
            "inputs": [
                {
                    "internalType": "uint16",
                    "name": "_dstChainId",
                    "type": "uint16"
                }
            ],
            "name": "incrementCounter",
            "outputs": [],
            "stateMutability": "payable",
            "type": "function"
        },
        {
            "inputs": [
                {
                    "internalType": "uint16",
                    "name": "_srcChainId",
                    "type": "uint16"
                },
                {
                    "internalType": "bytes",
                    "name": "_srcAddress",
                    "type": "bytes"
                }
            ],
            "name": "isTrustedRemote",
            "outputs": [
                {
                    "internalType": "bool",
                    "name": "",
                    "type": "bool"
                }
            ],
            "stateMutability": "view",
            "type": "function"
        },
        {
            "inputs": [],
            "name": "lzEndpoint",
            "outputs": [
                {
                    "internalType": "contract ILayerZeroEndpoint",
                    "name": "",
                    "type": "address"
                }
            ],
            "stateMutability": "view",
            "type": "function"
        },
        {
            "inputs": [
                {
                    "internalType": "uint16",
                    "name": "_srcChainId",
                    "type": "uint16"
                },
                {
                    "internalType": "bytes",
                    "name": "_srcAddress",
                    "type": "bytes"
                },
                {
                    "internalType": "uint64",
                    "name": "_nonce",
                    "type": "uint64"
                },
                {
                    "internalType": "bytes",
                    "name": "_payload",
                    "type": "bytes"
                }
            ],
            "name": "lzReceive",
            "outputs": [],
            "stateMutability": "nonpayable",
            "type": "function"
        },
        {
            "inputs": [
                {
                    "internalType": "uint16",
                    "name": "",
                    "type": "uint16"
                },
                {
                    "internalType": "uint16",
                    "name": "",
                    "type": "uint16"
                }
            ],
            "name": "minDstGasLookup",
            "outputs": [
                {
                    "internalType": "uint256",
                    "name": "",
                    "type": "uint256"
                }
            ],
            "stateMutability": "view",
            "type": "function"
        },
        {
            "inputs": [
                {
                    "internalType": "uint16",
                    "name": "_srcChainId",
                    "type": "uint16"
                },
                {
                    "internalType": "bytes",
                    "name": "_srcAddress",
                    "type": "bytes"
                },
                {
                    "internalType": "uint64",
                    "name": "_nonce",
                    "type": "uint64"
                },
                {
                    "internalType": "bytes",
                    "name": "_payload",
                    "type": "bytes"
                }
            ],
            "name": "nonblockingLzReceive",
            "outputs": [],
            "stateMutability": "nonpayable",
            "type": "function"
        },
        {
            "inputs": [],
            "name": "owner",
            "outputs": [
                {
                    "internalType": "address",
                    "name": "",
                    "type": "address"
                }
            ],
            "stateMutability": "view",
            "type": "function"
        },
        {
            "inputs": [
                {
                    "internalType": "uint16",
                    "name": "",
                    "type": "uint16"
                }
            ],
            "name": "payloadSizeLimitLookup",
            "outputs": [
                {
                    "internalType": "uint256",
                    "name": "",
                    "type": "uint256"
                }
            ],
            "stateMutability": "view",
            "type": "function"
        },
        {
            "inputs": [],
            "name": "precrime",
            "outputs": [
                {
                    "internalType": "address",
                    "name": "",
                    "type": "address"
                }
            ],
            "stateMutability": "view",
            "type": "function"
        },
        {
            "inputs": [],
            "name": "renounceOwnership",
            "outputs": [],
            "stateMutability": "nonpayable",
            "type": "function"
        },
        {
            "inputs": [
                {
                    "internalType": "uint16",
                    "name": "_srcChainId",
                    "type": "uint16"
                },
                {
                    "internalType": "bytes",
                    "name": "_srcAddress",
                    "type": "bytes"
                },
                {
                    "internalType": "uint64",
                    "name": "_nonce",
                    "type": "uint64"
                },
                {
                    "internalType": "bytes",
                    "name": "_payload",
                    "type": "bytes"
                }
            ],
            "name": "retryMessage",
            "outputs": [],
            "stateMutability": "payable",
            "type": "function"
        },
        {
            "inputs": [
                {
                    "internalType": "uint16",
                    "name": "_version",
                    "type": "uint16"
                },
                {
                    "internalType": "uint16",
                    "name": "_chainId",
                    "type": "uint16"
                },
                {
                    "internalType": "uint256",
                    "name": "_configType",
                    "type": "uint256"
                },
                {
                    "internalType": "bytes",
                    "name": "_config",
                    "type": "bytes"
                }
            ],
            "name": "setConfig",
            "outputs": [],
            "stateMutability": "nonpayable",
            "type": "function"
        },
        {
            "inputs": [
                {
                    "internalType": "uint16",
                    "name": "_dstChainId",
                    "type": "uint16"
                },
                {
                    "internalType": "uint16",
                    "name": "_packetType",
                    "type": "uint16"
                },
                {
                    "internalType": "uint256",
                    "name": "_minGas",
                    "type": "uint256"
                }
            ],
            "name": "setMinDstGas",
            "outputs": [],
            "stateMutability": "nonpayable",
            "type": "function"
        },
        {
            "inputs": [
                {
                    "internalType": "uint16",
                    "name": "dstChainId",
                    "type": "uint16"
                },
                {
                    "internalType": "address",
                    "name": "oracle",
                    "type": "address"
                }
            ],
            "name": "setOracle",
            "outputs": [],
            "stateMutability": "nonpayable",
            "type": "function"
        },
        {
            "inputs": [
                {
                    "internalType": "uint16",
                    "name": "_dstChainId",
                    "type": "uint16"
                },
                {
                    "internalType": "uint256",
                    "name": "_size",
                    "type": "uint256"
                }
            ],
            "name": "setPayloadSizeLimit",
            "outputs": [],
            "stateMutability": "nonpayable",
            "type": "function"
        },
        {
            "inputs": [
                {
                    "internalType": "address",
                    "name": "_precrime",
                    "type": "address"
                }
            ],
            "name": "setPrecrime",
            "outputs": [],
            "stateMutability": "nonpayable",
            "type": "function"
        },
        {
            "inputs": [
                {
                    "internalType": "uint16",
                    "name": "_version",
                    "type": "uint16"
                }
            ],
            "name": "setReceiveVersion",
            "outputs": [],
            "stateMutability": "nonpayable",
            "type": "function"
        },
        {
            "inputs": [
                {
                    "internalType": "uint16",
                    "name": "_version",
                    "type": "uint16"
                }
            ],
            "name": "setSendVersion",
            "outputs": [],
            "stateMutability": "nonpayable",
            "type": "function"
        },
        {
            "inputs": [
                {
                    "internalType": "uint16",
                    "name": "_remoteChainId",
                    "type": "uint16"
                },
                {
                    "internalType": "bytes",
                    "name": "_path",
                    "type": "bytes"
                }
            ],
            "name": "setTrustedRemote",
            "outputs": [],
            "stateMutability": "nonpayable",
            "type": "function"
        },
        {
            "inputs": [
                {
                    "internalType": "uint16",
                    "name": "_remoteChainId",
                    "type": "uint16"
                },
                {
                    "internalType": "bytes",
                    "name": "_remoteAddress",
                    "type": "bytes"
                }
            ],
            "name": "setTrustedRemoteAddress",
            "outputs": [],
            "stateMutability": "nonpayable",
            "type": "function"
        },
        {
            "inputs": [
                {
                    "internalType": "address",
                    "name": "newOwner",
                    "type": "address"
                }
            ],
            "name": "transferOwnership",
            "outputs": [],
            "stateMutability": "nonpayable",
            "type": "function"
        },
        {
            "inputs": [
                {
                    "internalType": "uint16",
                    "name": "",
                    "type": "uint16"
                }
            ],
            "name": "trustedRemoteLookup",
            "outputs": [
                {
                    "internalType": "bytes",
                    "name": "",
                    "type": "bytes"
                }
            ],
            "stateMutability": "view",
            "type": "function"
        }
    ],
    "bytecode": "0x60a06040523480156200001157600080fd5b5060405162003e0438038062003e048339818101604052810190620000379190620001cc565b8080620000596200004d6200009660201b60201c565b6200009e60201b60201c565b8073ffffffffffffffffffffffffffffffffffffffff1660808173ffffffffffffffffffffffffffffffffffffffff1681525050505050620001fe565b600033905090565b60008060009054906101000a900473ffffffffffffffffffffffffffffffffffffffff169050816000806101000a81548173ffffffffffffffffffffffffffffffffffffffff021916908373ffffffffffffffffffffffffffffffffffffffff1602179055508173ffffffffffffffffffffffffffffffffffffffff168173ffffffffffffffffffffffffffffffffffffffff167f8be0079c531659141344cd1fd0a4f28419497f9722a3daafe3b4186f6b6457e060405160405180910390a35050565b600080fd5b600073ffffffffffffffffffffffffffffffffffffffff82169050919050565b6000620001948262000167565b9050919050565b620001a68162000187565b8114620001b257600080fd5b50565b600081519050620001c6816200019b565b92915050565b600060208284031215620001e557620001e462000162565b5b6000620001f584828501620001b5565b91505092915050565b608051613b966200026e6000396000818161076a015281816109c801528181610a8a01528181610c4501528181610ce701528181610d23015281816112bf0152818161137401528181611654015281816117bd015281816117f901528181611a030152611dde0152613b966000f3fe6080604052600436106101d75760003560e01c80638da5cb5b11610102578063cbed8b9c11610095578063e2f2882411610064578063e2f288241461069c578063eb8d72b7146106d9578063f2fde38b14610702578063f5ecbdbc1461072b576101d7565b8063cbed8b9c146105f0578063d1deba1f14610619578063d46fb18814610635578063df2a5b3b14610673576101d7565b8063a6c3d165116100d1578063a6c3d16514610548578063b353aaa714610571578063baf3292d1461059c578063c4461834146105c5576101d7565b80638da5cb5b14610499578063950c8a74146104c45780639917565c146104ef5780639f38369a1461050b576101d7565b806342d65a8d1161017a57806366ad5c8a1161014957806366ad5c8a146103df578063715018a6146104085780637533d7881461041f5780638cfd8f5c1461045c576101d7565b806342d65a8d14610325578063492e527e1461034e5780635b8c41e61461037757806361bc221a146103b4576101d7565b806310ddb137116101b657806310ddb13714610257578063268e878d146102805780633d8b38f6146102ab5780633f1f4fa4146102e8576101d7565b80621d3567146101dc57806307e0db17146102055780630df374831461022e575b600080fd5b3480156101e857600080fd5b5061020360048036038101906101fe9190612248565b610768565b005b34801561021157600080fd5b5061022c600480360381019061022791906122ef565b6109be565b005b34801561023a57600080fd5b5061025560048036038101906102509190612352565b610a54565b005b34801561026357600080fd5b5061027e600480360381019061027991906122ef565b610a80565b005b34801561028c57600080fd5b50610295610b16565b6040516102a29190612422565b60405180910390f35b3480156102b757600080fd5b506102d260048036038101906102cd9190612444565b610b4f565b6040516102df91906124bf565b60405180910390f35b3480156102f457600080fd5b5061030f600480360381019061030a91906122ef565b610c23565b60405161031c91906124e9565b60405180910390f35b34801561033157600080fd5b5061034c60048036038101906103479190612444565b610c3b565b005b34801561035a57600080fd5b5061037560048036038101906103709190612562565b610cd7565b005b34801561038357600080fd5b5061039e600480360381019061039991906126d2565b610e33565b6040516103ab919061275a565b60405180910390f35b3480156103c057600080fd5b506103c9610e7b565b6040516103d691906124e9565b60405180910390f35b3480156103eb57600080fd5b5061040660048036038101906104019190612248565b610e81565b005b34801561041457600080fd5b5061041d610f92565b005b34801561042b57600080fd5b50610446600480360381019061044191906122ef565b610fa6565b6040516104539190612422565b60405180910390f35b34801561046857600080fd5b50610483600480360381019061047e9190612775565b611046565b60405161049091906124e9565b60405180910390f35b3480156104a557600080fd5b506104ae61106b565b6040516104bb91906127c4565b60405180910390f35b3480156104d057600080fd5b506104d9611094565b6040516104e691906127c4565b60405180910390f35b610509600480360381019061050491906122ef565b6110ba565b005b34801561051757600080fd5b50610532600480360381019061052d91906122ef565b611110565b60405161053f9190612422565b60405180910390f35b34801561055457600080fd5b5061056f600480360381019061056a9190612444565b611229565b005b34801561057d57600080fd5b506105866112bd565b604051610593919061283e565b60405180910390f35b3480156105a857600080fd5b506105c360048036038101906105be9190612859565b6112e1565b005b3480156105d157600080fd5b506105da611364565b6040516105e791906124e9565b60405180910390f35b3480156105fc57600080fd5b5061061760048036038101906106129190612886565b61136a565b005b610633600480360381019061062e9190612248565b61140c565b005b34801561064157600080fd5b5061065c6004803603810190610657919061293a565b61164f565b60405161066a9291906129ae565b60405180910390f35b34801561067f57600080fd5b5061069a600480360381019061069591906129d7565b611737565b005b3480156106a857600080fd5b506106c360048036038101906106be91906122ef565b6117b8565b6040516106d091906127c4565b60405180910390f35b3480156106e557600080fd5b5061070060048036038101906106fb9190612444565b611909565b005b34801561070e57600080fd5b5061072960048036038101906107249190612859565b61197c565b005b34801561073757600080fd5b50610752600480360381019061074d9190612a2a565b6119ff565b60405161075f9190612422565b60405180910390f35b7f000000000000000000000000000000000000000000000000000000000000000073ffffffffffffffffffffffffffffffffffffffff166107a7611ab0565b73ffffffffffffffffffffffffffffffffffffffff16146107fd576040517f08c379a00000000000000000000000000000000000000000000000000000000081526004016107f490612aee565b60405180910390fd5b6000600160008861ffff1661ffff168152602001908152602001600020805461082590612b3d565b80601f016020809104026020016040519081016040528092919081815260200182805461085190612b3d565b801561089e5780601f106108735761010080835404028352916020019161089e565b820191906000526020600020905b81548152906001019060200180831161088157829003601f168201915b505050505090508051868690501480156108b9575060008151115b80156108e25750808051906020012086866040516108d8929190612b9e565b6040518091039020145b610921576040517f08c379a000000000000000000000000000000000000000000000000000000000815260040161091890612c29565b60405180910390fd5b6109b58787878080601f016020809104026020016040519081016040528093929190818152602001838380828437600081840152601f19601f820116905080830192505050505050508686868080601f016020809104026020016040519081016040528093929190818152602001838380828437600081840152601f19601f82011690508083019250505050505050611ab8565b50505050505050565b6109c6611b83565b7f000000000000000000000000000000000000000000000000000000000000000073ffffffffffffffffffffffffffffffffffffffff166307e0db17826040518263ffffffff1660e01b8152600401610a1f9190612c58565b600060405180830381600087803b158015610a3957600080fd5b505af1158015610a4d573d6000803e3d6000fd5b5050505050565b610a5c611b83565b80600360008461ffff1661ffff168152602001908152602001600020819055505050565b610a88611b83565b7f000000000000000000000000000000000000000000000000000000000000000073ffffffffffffffffffffffffffffffffffffffff166310ddb137826040518263ffffffff1660e01b8152600401610ae19190612c58565b600060405180830381600087803b158015610afb57600080fd5b505af1158015610b0f573d6000803e3d6000fd5b5050505050565b6040518060400160405280600481526020017f010203040000000000000000000000000000000000000000000000000000000081525081565b600080600160008661ffff1661ffff1681526020019081526020016000208054610b7890612b3d565b80601f0160208091040260200160405190810160405280929190818152602001828054610ba490612b3d565b8015610bf15780601f10610bc657610100808354040283529160200191610bf1565b820191906000526020600020905b815481529060010190602001808311610bd457829003601f168201915b505050505090508383604051610c08929190612b9e565b60405180910390208180519060200120149150509392505050565b60036020528060005260406000206000915090505481565b610c43611b83565b7f000000000000000000000000000000000000000000000000000000000000000073ffffffffffffffffffffffffffffffffffffffff166342d65a8d8484846040518463ffffffff1660e01b8152600401610ca093929190612ca0565b600060405180830381600087803b158015610cba57600080fd5b505af1158015610cce573d6000803e3d6000fd5b50505050505050565b610cdf611b83565b6000600690507f000000000000000000000000000000000000000000000000000000000000000073ffffffffffffffffffffffffffffffffffffffff1663cbed8b9c7f000000000000000000000000000000000000000000000000000000000000000073ffffffffffffffffffffffffffffffffffffffff1663096568f6306040518263ffffffff1660e01b8152600401610d7a91906127c4565b602060405180830381865afa158015610d97573d6000803e3d6000fd5b505050506040513d601f19601f82011682018060405250810190610dbb9190612ce7565b858486604051602001610dce91906127c4565b6040516020818303038152906040526040518563ffffffff1660e01b8152600401610dfc9493929190612d14565b600060405180830381600087803b158015610e1657600080fd5b505af1158015610e2a573d6000803e3d6000fd5b50505050505050565b60056020528260005260406000208280516020810182018051848252602083016020850120818352809550505050505060205280600052604060002060009250925050505481565b60065481565b3073ffffffffffffffffffffffffffffffffffffffff16610ea0611ab0565b73ffffffffffffffffffffffffffffffffffffffff1614610ef6576040517f08c379a0000000000000000000000000000000000000000000000000000000008152600401610eed90612dd2565b60405180910390fd5b610f8a8686868080601f016020809104026020016040519081016040528093929190818152602001838380828437600081840152601f19601f820116905080830192505050505050508585858080601f016020809104026020016040519081016040528093929190818152602001838380828437600081840152601f19601f82011690508083019250505050505050611c01565b505050505050565b610f9a611b83565b610fa46000611c21565b565b60016020528060005260406000206000915090508054610fc590612b3d565b80601f0160208091040260200160405190810160405280929190818152602001828054610ff190612b3d565b801561103e5780601f106110135761010080835404028352916020019161103e565b820191906000526020600020905b81548152906001019060200180831161102157829003601f168201915b505050505081565b6002602052816000526040600020602052806000526040600020600091509150505481565b60008060009054906101000a900473ffffffffffffffffffffffffffffffffffffffff16905090565b600460009054906101000a900473ffffffffffffffffffffffffffffffffffffffff1681565b61110d816040518060400160405280600481526020017f01020304000000000000000000000000000000000000000000000000000000008152503360006040518060200160405280600081525034611ce5565b50565b60606000600160008461ffff1661ffff168152602001908152602001600020805461113a90612b3d565b80601f016020809104026020016040519081016040528092919081815260200182805461116690612b3d565b80156111b35780601f10611188576101008083540402835291602001916111b3565b820191906000526020600020905b81548152906001019060200180831161119657829003601f168201915b5050505050905060008151036111fe576040517f08c379a00000000000000000000000000000000000000000000000000000000081526004016111f590612e3e565b60405180910390fd5b6112216000601483516112119190612e8d565b83611e7b9092919063ffffffff16565b915050919050565b611231611b83565b81813060405160200161124693929190612f09565b604051602081830303815290604052600160008561ffff1661ffff168152602001908152602001600020908161127c91906130d5565b507f8c0400cfe2d1199b1a725c78960bcc2a344d869b80590d0f2bd005db15a572ce8383836040516112b093929190612ca0565b60405180910390a1505050565b7f000000000000000000000000000000000000000000000000000000000000000081565b6112e9611b83565b80600460006101000a81548173ffffffffffffffffffffffffffffffffffffffff021916908373ffffffffffffffffffffffffffffffffffffffff1602179055507f5db758e995a17ec1ad84bdef7e8c3293a0bd6179bcce400dff5d4c3d87db726b8160405161135991906127c4565b60405180910390a150565b61271081565b611372611b83565b7f000000000000000000000000000000000000000000000000000000000000000073ffffffffffffffffffffffffffffffffffffffff1663cbed8b9c86868686866040518663ffffffff1660e01b81526004016113d39594939291906131a7565b600060405180830381600087803b1580156113ed57600080fd5b505af1158015611401573d6000803e3d6000fd5b505050505050505050565b6000600560008861ffff1661ffff1681526020019081526020016000208686604051611439929190612b9e565b908152602001604051809103902060008567ffffffffffffffff1667ffffffffffffffff1681526020019081526020016000205490506000801b81036114b4576040517f08c379a00000000000000000000000000000000000000000000000000000000081526004016114ab90613267565b60405180910390fd5b8083836040516114c5929190612b9e565b60405180910390201461150d576040517f08c379a0000000000000000000000000000000000000000000000000000000008152600401611504906132f9565b60405180910390fd5b6000801b600560008961ffff1661ffff168152602001908152602001600020878760405161153c929190612b9e565b908152602001604051809103902060008667ffffffffffffffff1667ffffffffffffffff168152602001908152602001600020819055506116078787878080601f016020809104026020016040519081016040528093929190818152602001838380828437600081840152601f19601f820116905080830192505050505050508686868080601f016020809104026020016040519081016040528093929190818152602001838380828437600081840152601f19601f82011690508083019250505050505050611c01565b7fc264d91f3adc5588250e1551f547752ca0cfa8f6b530d243b9f9f4cab10ea8e5878787878560405161163e959493929190613328565b60405180910390a150505050505050565b6000807f000000000000000000000000000000000000000000000000000000000000000073ffffffffffffffffffffffffffffffffffffffff166340a7bb1087306040518060400160405280600481526020017f01020304000000000000000000000000000000000000000000000000000000008152508989896040518763ffffffff1660e01b81526004016116ea96959493929190613376565b6040805180830381865afa158015611706573d6000803e3d6000fd5b505050506040513d601f19601f8201168201806040525081019061172a91906133ee565b9150915094509492505050565b61173f611b83565b80600260008561ffff1661ffff16815260200190815260200160002060008461ffff1661ffff168152602001908152602001600020819055507f9d5c7c0b934da8fefa9c7760c98383778a12dfbfc0c3b3106518f43fb9508ac08383836040516117ab9392919061342e565b60405180910390a1505050565b6000807f000000000000000000000000000000000000000000000000000000000000000073ffffffffffffffffffffffffffffffffffffffff1663f5ecbdbc7f000000000000000000000000000000000000000000000000000000000000000073ffffffffffffffffffffffffffffffffffffffff1663096568f6306040518263ffffffff1660e01b815260040161185091906127c4565b602060405180830381865afa15801561186d573d6000803e3d6000fd5b505050506040513d601f19601f820116820180604052508101906118919190612ce7565b853060066040518563ffffffff1660e01b81526004016118b494939291906134a0565b600060405180830381865afa1580156118d1573d6000803e3d6000fd5b505050506040513d6000823e3d601f19601f820116820180604052508101906118fa9190613555565b90506020810151915050919050565b611911611b83565b8181600160008661ffff1661ffff168152602001908152602001600020918261193b9291906135a9565b507ffa41487ad5d6728f0b19276fa1eddc16558578f5109fc39d2dc33c3230470dab83838360405161196f93929190612ca0565b60405180910390a1505050565b611984611b83565b600073ffffffffffffffffffffffffffffffffffffffff168173ffffffffffffffffffffffffffffffffffffffff16036119f3576040517f08c379a00000000000000000000000000000000000000000000000000000000081526004016119ea906136eb565b60405180910390fd5b6119fc81611c21565b50565b60607f000000000000000000000000000000000000000000000000000000000000000073ffffffffffffffffffffffffffffffffffffffff1663f5ecbdbc868630866040518563ffffffff1660e01b8152600401611a60949392919061370b565b600060405180830381865afa158015611a7d573d6000803e3d6000fd5b505050506040513d6000823e3d601f19601f82011682018060405250810190611aa69190613555565b9050949350505050565b600033905090565b600080611b645a60966366ad5c8a60e01b89898989604051602401611ae09493929190613750565b604051602081830303815290604052907bffffffffffffffffffffffffffffffffffffffffffffffffffffffff19166020820180517bffffffffffffffffffffffffffffffffffffffffffffffffffffffff83818316178352505050503073ffffffffffffffffffffffffffffffffffffffff16611f99909392919063ffffffff16565b9150915081611b7b57611b7a8686868685612031565b5b505050505050565b611b8b611ab0565b73ffffffffffffffffffffffffffffffffffffffff16611ba961106b565b73ffffffffffffffffffffffffffffffffffffffff1614611bff576040517f08c379a0000000000000000000000000000000000000000000000000000000008152600401611bf6906137ef565b60405180910390fd5b565b600160066000828254611c14919061380f565b9250508190555050505050565b60008060009054906101000a900473ffffffffffffffffffffffffffffffffffffffff169050816000806101000a81548173ffffffffffffffffffffffffffffffffffffffff021916908373ffffffffffffffffffffffffffffffffffffffff1602179055508173ffffffffffffffffffffffffffffffffffffffff168173ffffffffffffffffffffffffffffffffffffffff167f8be0079c531659141344cd1fd0a4f28419497f9722a3daafe3b4186f6b6457e060405160405180910390a35050565b6000600160008861ffff1661ffff1681526020019081526020016000208054611d0d90612b3d565b80601f0160208091040260200160405190810160405280929190818152602001828054611d3990612b3d565b8015611d865780601f10611d5b57610100808354040283529160200191611d86565b820191906000526020600020905b815481529060010190602001808311611d6957829003601f168201915b505050505090506000815103611dd1576040517f08c379a0000000000000000000000000000000000000000000000000000000008152600401611dc8906138b5565b60405180910390fd5b611ddc8787516120df565b7f000000000000000000000000000000000000000000000000000000000000000073ffffffffffffffffffffffffffffffffffffffff1663c58031008389848a8a8a8a6040518863ffffffff1660e01b8152600401611e40969594939291906138f6565b6000604051808303818588803b158015611e5957600080fd5b505af1158015611e6d573d6000803e3d6000fd5b505050505050505050505050565b606081601f83611e8b919061380f565b1015611ecc576040517f08c379a0000000000000000000000000000000000000000000000000000000008152600401611ec3906139b8565b60405180910390fd5b8183611ed8919061380f565b84511015611f1b576040517f08c379a0000000000000000000000000000000000000000000000000000000008152600401611f1290613a24565b60405180910390fd5b6060821560008114611f3c5760405191506000825260208201604052611f8d565b6040519150601f8416801560200281840101858101878315602002848b0101015b81831015611f7a5780518352602083019250602081019050611f5d565b50868552601f19601f8301166040525050505b50809150509392505050565b6000606060008060008661ffff1667ffffffffffffffff811115611fc057611fbf6125a7565b5b6040519080825280601f01601f191660200182016040528015611ff25781602001600182028036833780820191505090505b50905060008087516020890160008d8df191503d925086831115612014578692505b828152826000602083013e81819450945050505094509492505050565b8180519060200120600560008761ffff1661ffff168152602001908152602001600020856040516120629190613a75565b908152602001604051809103902060008567ffffffffffffffff1667ffffffffffffffff168152602001908152602001600020819055507fe183f33de2837795525b4792ca4cd60535bd77c53b7e7030060bfcf5734d6b0c85858585856040516120d0959493929190613a8c565b60405180910390a15050505050565b6000600360008461ffff1661ffff1681526020019081526020016000205490506000810361210d5761271090505b80821115612150576040517f08c379a000000000000000000000000000000000000000000000000000000000815260040161214790613b40565b60405180910390fd5b505050565b6000604051905090565b600080fd5b600080fd5b600061ffff82169050919050565b61218081612169565b811461218b57600080fd5b50565b60008135905061219d81612177565b92915050565b600080fd5b600080fd5b600080fd5b60008083601f8401126121c8576121c76121a3565b5b8235905067ffffffffffffffff8111156121e5576121e46121a8565b5b602083019150836001820283011115612201576122006121ad565b5b9250929050565b600067ffffffffffffffff82169050919050565b61222581612208565b811461223057600080fd5b50565b6000813590506122428161221c565b92915050565b600080600080600080608087890312156122655761226461215f565b5b600061227389828a0161218e565b965050602087013567ffffffffffffffff81111561229457612293612164565b5b6122a089828a016121b2565b955095505060406122b389828a01612233565b935050606087013567ffffffffffffffff8111156122d4576122d3612164565b5b6122e089828a016121b2565b92509250509295509295509295565b6000602082840312156123055761230461215f565b5b60006123138482850161218e565b91505092915050565b6000819050919050565b61232f8161231c565b811461233a57600080fd5b50565b60008135905061234c81612326565b92915050565b600080604083850312156123695761236861215f565b5b60006123778582860161218e565b92505060206123888582860161233d565b9150509250929050565b600081519050919050565b600082825260208201905092915050565b60005b838110156123cc5780820151818401526020810190506123b1565b60008484015250505050565b6000601f19601f8301169050919050565b60006123f482612392565b6123fe818561239d565b935061240e8185602086016123ae565b612417816123d8565b840191505092915050565b6000602082019050818103600083015261243c81846123e9565b905092915050565b60008060006040848603121561245d5761245c61215f565b5b600061246b8682870161218e565b935050602084013567ffffffffffffffff81111561248c5761248b612164565b5b612498868287016121b2565b92509250509250925092565b60008115159050919050565b6124b9816124a4565b82525050565b60006020820190506124d460008301846124b0565b92915050565b6124e38161231c565b82525050565b60006020820190506124fe60008301846124da565b92915050565b600073ffffffffffffffffffffffffffffffffffffffff82169050919050565b600061252f82612504565b9050919050565b61253f81612524565b811461254a57600080fd5b50565b60008135905061255c81612536565b92915050565b600080604083850312156125795761257861215f565b5b60006125878582860161218e565b92505060206125988582860161254d565b9150509250929050565b600080fd5b7f4e487b7100000000000000000000000000000000000000000000000000000000600052604160045260246000fd5b6125df826123d8565b810181811067ffffffffffffffff821117156125fe576125fd6125a7565b5b80604052505050565b6000612611612155565b905061261d82826125d6565b919050565b600067ffffffffffffffff82111561263d5761263c6125a7565b5b612646826123d8565b9050602081019050919050565b82818337600083830152505050565b600061267561267084612622565b612607565b905082815260208101848484011115612691576126906125a2565b5b61269c848285612653565b509392505050565b600082601f8301126126b9576126b86121a3565b5b81356126c9848260208601612662565b91505092915050565b6000806000606084860312156126eb576126ea61215f565b5b60006126f98682870161218e565b935050602084013567ffffffffffffffff81111561271a57612719612164565b5b612726868287016126a4565b925050604061273786828701612233565b9150509250925092565b6000819050919050565b61275481612741565b82525050565b600060208201905061276f600083018461274b565b92915050565b6000806040838503121561278c5761278b61215f565b5b600061279a8582860161218e565b92505060206127ab8582860161218e565b9150509250929050565b6127be81612524565b82525050565b60006020820190506127d960008301846127b5565b92915050565b6000819050919050565b60006128046127ff6127fa84612504565b6127df565b612504565b9050919050565b6000612816826127e9565b9050919050565b60006128288261280b565b9050919050565b6128388161281d565b82525050565b6000602082019050612853600083018461282f565b92915050565b60006020828403121561286f5761286e61215f565b5b600061287d8482850161254d565b91505092915050565b6000806000806000608086880312156128a2576128a161215f565b5b60006128b08882890161218e565b95505060206128c18882890161218e565b94505060406128d28882890161233d565b935050606086013567ffffffffffffffff8111156128f3576128f2612164565b5b6128ff888289016121b2565b92509250509295509295909350565b612917816124a4565b811461292257600080fd5b50565b6000813590506129348161290e565b92915050565b600080600080606085870312156129545761295361215f565b5b60006129628782880161218e565b945050602061297387828801612925565b935050604085013567ffffffffffffffff81111561299457612993612164565b5b6129a0878288016121b2565b925092505092959194509250565b60006040820190506129c360008301856124da565b6129d060208301846124da565b9392505050565b6000806000606084860312156129f0576129ef61215f565b5b60006129fe8682870161218e565b9350506020612a0f8682870161218e565b9250506040612a208682870161233d565b9150509250925092565b60008060008060808587031215612a4457612a4361215f565b5b6000612a528782880161218e565b9450506020612a638782880161218e565b9350506040612a748782880161254d565b9250506060612a858782880161233d565b91505092959194509250565b600082825260208201905092915050565b7f4c7a4170703a20696e76616c696420656e64706f696e742063616c6c65720000600082015250565b6000612ad8601e83612a91565b9150612ae382612aa2565b602082019050919050565b60006020820190508181036000830152612b0781612acb565b9050919050565b7f4e487b7100000000000000000000000000000000000000000000000000000000600052602260045260246000fd5b60006002820490506001821680612b5557607f821691505b602082108103612b6857612b67612b0e565b5b50919050565b600081905092915050565b6000612b858385612b6e565b9350612b92838584612653565b82840190509392505050565b6000612bab828486612b79565b91508190509392505050565b7f4c7a4170703a20696e76616c696420736f757263652073656e64696e6720636f60008201527f6e74726163740000000000000000000000000000000000000000000000000000602082015250565b6000612c13602683612a91565b9150612c1e82612bb7565b604082019050919050565b60006020820190508181036000830152612c4281612c06565b9050919050565b612c5281612169565b82525050565b6000602082019050612c6d6000830184612c49565b92915050565b6000612c7f838561239d565b9350612c8c838584612653565b612c95836123d8565b840190509392505050565b6000604082019050612cb56000830186612c49565b8181036020830152612cc8818486612c73565b9050949350505050565b600081519050612ce181612177565b92915050565b600060208284031215612cfd57612cfc61215f565b5b6000612d0b84828501612cd2565b91505092915050565b6000608082019050612d296000830187612c49565b612d366020830186612c49565b612d4360408301856124da565b8181036060830152612d5581846123e9565b905095945050505050565b7f4e6f6e626c6f636b696e674c7a4170703a2063616c6c6572206d75737420626560008201527f204c7a4170700000000000000000000000000000000000000000000000000000602082015250565b6000612dbc602683612a91565b9150612dc782612d60565b604082019050919050565b60006020820190508181036000830152612deb81612daf565b9050919050565b7f4c7a4170703a206e6f20747275737465642070617468207265636f7264000000600082015250565b6000612e28601d83612a91565b9150612e3382612df2565b602082019050919050565b60006020820190508181036000830152612e5781612e1b565b9050919050565b7f4e487b7100000000000000000000000000000000000000000000000000000000600052601160045260246000fd5b6000612e988261231c565b9150612ea38361231c565b9250828203905081811115612ebb57612eba612e5e565b5b92915050565b60008160601b9050919050565b6000612ed982612ec1565b9050919050565b6000612eeb82612ece565b9050919050565b612f03612efe82612524565b612ee0565b82525050565b6000612f16828587612b79565b9150612f228284612ef2565b601482019150819050949350505050565b60008190508160005260206000209050919050565b60006020601f8301049050919050565b600082821b905092915050565b600060088302612f957fffffffffffffffffffffffffffffffffffffffffffffffffffffffffffffffff82612f58565b612f9f8683612f58565b95508019841693508086168417925050509392505050565b6000612fd2612fcd612fc88461231c565b6127df565b61231c565b9050919050565b6000819050919050565b612fec83612fb7565b613000612ff882612fd9565b848454612f65565b825550505050565b600090565b613015613008565b613020818484612fe3565b505050565b5b818110156130445761303960008261300d565b600181019050613026565b5050565b601f8211156130895761305a81612f33565b61306384612f48565b81016020851015613072578190505b61308661307e85612f48565b830182613025565b50505b505050565b600082821c905092915050565b60006130ac6000198460080261308e565b1980831691505092915050565b60006130c5838361309b565b9150826002028217905092915050565b6130de82612392565b67ffffffffffffffff8111156130f7576130f66125a7565b5b6131018254612b3d565b61310c828285613048565b600060209050601f83116001811461313f576000841561312d578287015190505b61313785826130b9565b86555061319f565b601f19841661314d86612f33565b60005b8281101561317557848901518255600182019150602085019450602081019050613150565b86831015613192578489015161318e601f89168261309b565b8355505b6001600288020188555050505b505050505050565b60006080820190506131bc6000830188612c49565b6131c96020830187612c49565b6131d660408301866124da565b81810360608301526131e9818486612c73565b90509695505050505050565b7f4e6f6e626c6f636b696e674c7a4170703a206e6f2073746f726564206d65737360008201527f6167650000000000000000000000000000000000000000000000000000000000602082015250565b6000613251602383612a91565b915061325c826131f5565b604082019050919050565b6000602082019050818103600083015261328081613244565b9050919050565b7f4e6f6e626c6f636b696e674c7a4170703a20696e76616c6964207061796c6f6160008201527f6400000000000000000000000000000000000000000000000000000000000000602082015250565b60006132e3602183612a91565b91506132ee82613287565b604082019050919050565b60006020820190508181036000830152613312816132d6565b9050919050565b61332281612208565b82525050565b600060808201905061333d6000830188612c49565b8181036020830152613350818688612c73565b905061335f6040830185613319565b61336c606083018461274b565b9695505050505050565b600060a08201905061338b6000830189612c49565b61339860208301886127b5565b81810360408301526133aa81876123e9565b90506133b960608301866124b0565b81810360808301526133cc818486612c73565b9050979650505050505050565b6000815190506133e881612326565b92915050565b600080604083850312156134055761340461215f565b5b6000613413858286016133d9565b9250506020613424858286016133d9565b9150509250929050565b60006060820190506134436000830186612c49565b6134506020830185612c49565b61345d60408301846124da565b949350505050565b6000819050919050565b600061348a61348561348084613465565b6127df565b61231c565b9050919050565b61349a8161346f565b82525050565b60006080820190506134b56000830187612c49565b6134c26020830186612c49565b6134cf60408301856127b5565b6134dc6060830184613491565b95945050505050565b60006134f86134f384612622565b612607565b905082815260208101848484011115613514576135136125a2565b5b61351f8482856123ae565b509392505050565b600082601f83011261353c5761353b6121a3565b5b815161354c8482602086016134e5565b91505092915050565b60006020828403121561356b5761356a61215f565b5b600082015167ffffffffffffffff81111561358957613588612164565b5b61359584828501613527565b91505092915050565b600082905092915050565b6135b3838361359e565b67ffffffffffffffff8111156135cc576135cb6125a7565b5b6135d68254612b3d565b6135e1828285613048565b6000601f83116001811461361057600084156135fe578287013590505b61360885826130b9565b865550613670565b601f19841661361e86612f33565b60005b8281101561364657848901358255600182019150602085019450602081019050613621565b86831015613663578489013561365f601f89168261309b565b8355505b6001600288020188555050505b50505050505050565b7f4f776e61626c653a206e6577206f776e657220697320746865207a65726f206160008201527f6464726573730000000000000000000000000000000000000000000000000000602082015250565b60006136d5602683612a91565b91506136e082613679565b604082019050919050565b60006020820190508181036000830152613704816136c8565b9050919050565b60006080820190506137206000830187612c49565b61372d6020830186612c49565b61373a60408301856127b5565b61374760608301846124da565b95945050505050565b60006080820190506137656000830187612c49565b818103602083015261377781866123e9565b90506137866040830185613319565b818103606083015261379881846123e9565b905095945050505050565b7f4f776e61626c653a2063616c6c6572206973206e6f7420746865206f776e6572600082015250565b60006137d9602083612a91565b91506137e4826137a3565b602082019050919050565b60006020820190508181036000830152613808816137cc565b9050919050565b600061381a8261231c565b91506138258361231c565b925082820190508082111561383d5761383c612e5e565b5b92915050565b7f4c7a4170703a2064657374696e6174696f6e20636861696e206973206e6f742060008201527f61207472757374656420736f7572636500000000000000000000000000000000602082015250565b600061389f603083612a91565b91506138aa82613843565b604082019050919050565b600060208201905081810360008301526138ce81613892565b9050919050565b60006138e082612504565b9050919050565b6138f0816138d5565b82525050565b600060c08201905061390b6000830189612c49565b818103602083015261391d81886123e9565b9050818103604083015261393181876123e9565b905061394060608301866138e7565b61394d60808301856127b5565b81810360a083015261395f81846123e9565b9050979650505050505050565b7f736c6963655f6f766572666c6f77000000000000000000000000000000000000600082015250565b60006139a2600e83612a91565b91506139ad8261396c565b602082019050919050565b600060208201905081810360008301526139d181613995565b9050919050565b7f736c6963655f6f75744f66426f756e6473000000000000000000000000000000600082015250565b6000613a0e601183612a91565b9150613a19826139d8565b602082019050919050565b60006020820190508181036000830152613a3d81613a01565b9050919050565b6000613a4f82612392565b613a598185612b6e565b9350613a698185602086016123ae565b80840191505092915050565b6000613a818284613a44565b915081905092915050565b600060a082019050613aa16000830188612c49565b8181036020830152613ab381876123e9565b9050613ac26040830186613319565b8181036060830152613ad481856123e9565b90508181036080830152613ae881846123e9565b90509695505050505050565b7f4c7a4170703a207061796c6f61642073697a6520697320746f6f206c61726765600082015250565b6000613b2a602083612a91565b9150613b3582613af4565b602082019050919050565b60006020820190508181036000830152613b5981613b1d565b905091905056fea26469706673582212201e7400d2ff560ad735e1409905fe9a91bd3cc947b579b2886fc9a3d7770f9e2064736f6c63430008140033",
    "linkReferences": {},
    "deployedLinkReferences": {}
}